:020000020000FC
:100000000FEF0DBF18E01EBFF0E8F0936100F4E0C1
:10001000F09361000FE104B900E205B90FEF0AB9EE
:1000200000E007B91FE118B9A0E0C0E090E0D0E01F
:10003000E0E0B0E056B150FD0E94430056B150FFE1
:100040000E94490066B161FD0E94510066B161FFE6
:100050000E94570056B152FD0E945F0056B152FFF8
:100060000E94650066B163FD0E946D0066B163FF8A
:100070000E94730056B154FD0E947B0056B154FF9C
:100080000E948300D7CF00E0D1E003950436E9F762
:100090000895D13021F4D0E0AF3009F0A395A5B98F
:1000A000089500E0E1E003950436E9F70895E130B2
:1000B00021F4E0E0A03009F0AA95A5B9089500E088
:1000C00021E003950436E9F70895213021F420E07A
:1000D000CF3009F0C395CBB9089500E031E0039526
:1000E0000436E9F70895313021F430E0C03009F0EA
:1000F000CA95CBB9089500E0B1E04A2F45B9039500
:100100000436E9F70895B0E090E070E040E1940F24
:1001100073957A17E1F770E041E1940F73957C17BE
:10012000E1F70A2F0C0F003128F080E19C2F4A2FB5
:08013000480F45B99BB9089581
:00000001FF
